:020000040000FA
:06000000DDEF00F012002C
:06002A000100D2010000FC
:080030008A0000000A00000034
:08003800D9CFE6FFE1CFD9FFAB
:10004000020EE126956ADE6ADD6AD9CFE9FFDACFD2
:10005000EAFF090ED880EE54000EED5415E3DECF12
:10006000E9FFDDCFEAFF8A0EE926000EEA22EF5013
:10007000836E640EE66EE66A14D8E552E552DF2A16
:10008000010E01E3DB2AE1D7DED7F56E020EE15C5B
:1000900002E2E16AE552E16EF550E552E7CFD9FFA1
:1000A0001200D9CFE6FFE1CFD9FF040EE126DE6AC8
:1000B000DD6ADECF00F0DDCF01F0FD0EDBCF02F018
:1000C000FE0EDBCF03F00050025C015003581AE330
:1000D000020EDB6A030EDB6A020EDBCF00F0030EBA
:1000E000DBCF01F0A50E005C000E015806E2020E07
:1000F000DB2A030E01E3DB2AEFD7DF2A010E01E33F
:10010000DB2AD7D7F56E040EE15C02E2E16AE55224
:0C011000E16EF550E552E7CFD9FF120078
:04011C002A0EF66E43
:10012000000EF76E000EF86E00010900F550856FA5
:100130000900F550866F03E1856701D03DD00900C5
:10014000F550806F0900F550816F0900F550826FFE
:1001500009000900F550E96E0900F550EA6E090042
:1001600009000900F550836F0900F550846F0900FC
:100170000900F6CF87F0F7CF88F0F8CF89F080C07C
:10018000F6FF81C0F7FF82C0F8FF0001835302E150
:10019000845307E00900F550EE6E8307F8E2840708
:1001A000F9D787C0F6FF88C0F7FF89C0F8FF0001C4
:0A01B0008507000E865BBFD7120022
:0601BA0015EE00F025EE39
:1001C00000F0F86A059C8EEC00F01CEC00F0FDD706
:0201D00012001B
:0A01D2003F07584F646D7D077F6FF3
:00000001FF
