:020000040000FA
:0600000078EF01F0120090
:02002A000000D4
:04002C00D9CFE6FF43
:10003000E1CFD9FFFE0EDB50816E839083928384E3
:10004000010EE66E61EC01F0E5528394E552E7CFD4
:10005000D9FF1200D9CFE6FFE1CFD9FFFE0EDB506A
:10006000816E838083928384FA0EE66EA0D8E55277
:100070008394E552E7CFD9FF1200020EE66ED6DF79
:10008000E552380EE66ED2DFE5520E0EE66ECEDF9A
:10009000E552060EE66ECADFE552800EE66EC6DF5A
:1000A000E5521200FA0EE66E82D8E552828082A8EE
:1000B00006D082B8FED7310EE66ECCDFE55282AABA
:1000C00006D082BAFED7320EE66EC4DFE55282ACAD
:1000D00006D082BCFED7330EE66EBCDFE5528290BE
:1000E000828282A807D082A805D0340EE66EB2DFE5
:1000F000E552F9D782AA06D082BAFED7350EE66E4F
:10010000A9DFE55282AC06D082BCFED7360EE66E81
:10011000A1DFE552FA0EE66E4AD8E5528292828459
:1001200082A806D082B8FED7370EE66E93DFE5527E
:1001300082AA06D082BAFED7380EE66E8BDFE55271
:1001400082AC06D082BCFED7390EE66E83DFE55264
:10015000FA0EE66E2CD8E5528294828682A806D0EA
:1001600082B8FED72A0EE66E75DFE55282AA06D067
:1001700082BAFED7300EE66E6DDFE55282AC06D055
:1001800082BCFED7230EE66E65DFE552FA0EE66E00
:100190000ED8E55282961200956A936AF00E946E1C
:1001A000836A816A826A69DF7DDFFED71200D9CF58
:1001B000E6FFE1CFD9FF040EE126DE6ADD6ADECF7D
:1001C00000F0DDCF01F0FE0EDB50026E036A00503E
:1001D000025C015003581AE3020EDB6A030EDB6A6D
:1001E000D950020FE96EDACFEAFFA50ED880EE549F
:1001F000000EED5406E3020EDB2A030E01E3DB2AB8
:10020000EFD7DF2A010E01E3DB2AD9D7F56E040E02
:10021000E15C02E2E16AE552E16EF550E552E7CFBA
:04022000D9FF1200F0
:0C0224002A0EF66E000EF76E000EF86E4B
:1002300000010900F550856F0900F550866F03E154
:10024000856701D03DD00900F550806F0900F55059
:10025000816F0900F550826F09000900F550E96EC1
:100260000900F550EA6E090009000900F550836F96
:100270000900F550846F09000900F6CF87F0F7CF29
:1002800088F0F8CF89F080C0F6FF81C0F7FF82C008
:10029000F8FF0001835302E1845307E00900F550A1
:1002A000EE6E8307F8E28407F9D787C0F6FF88C0AF
:1002B000F7FF89C0F8FF00018507000E865BBFD7F6
:0202C00012002A
:0E02C200FF0EE350076EEF0E01D0F30EE76E55
:1002D000E72E68EF01F00C0E066EE76AE72E6EEF70
:1002E00001F0062E6DEF01F0072E66EF01F012000F
:1002F00015EE00F025EE00F0F86A059C12EC01F016
:08030000CCEC00F0FDD7120067
:020000040030CA
:010003000EEE
:00000001FF
