:020000040000FA
:0600000071EF01F0120097
:02002A000000D4
:04002C00946A956AD3
:10003000826A836A80D8C80EE66EE66AC6D8E55240
:10004000E552860EE66EE66AACD8E552E552450EFC
:10005000E66EE66A92D8E552E552430EE66EE66A2F
:100060008CD8E552E552450EE66EE66A86D8E55232
:10007000E552C00EE66EE66A94D8E552E5524A0EA5
:10008000E66EE66A7AD8E552E552410EE66EE66A19
:1000900074D8E552E552490EE66EE66A6ED8E5522E
:1000A000E5524E0EE66EE66A68D8E552E552200E3D
:1000B000E66EE66A62D8E552E552550EE66EE66AED
:1000C0005CD8E552E5526E0EE66EE66A56D8E55209
:1000D000E552690EE66EE66A50D8E552E552760EB4
:1000E000E66EE66A4AD8E552E552650EE66EE66AC5
:1000F00044D8E552E552720EE66EE66A3ED8E55205
:10010000E552730EE66EE66A38D8E552E552690E9E
:10011000E66EE66A32D8E552E552740EE66EE66A9D
:100120002CD8E552E552790EE66EE66A26D8E552FD
:10013000E55287D71200829482908292380EE66E42
:10014000E66A2FD8E552E5520E0EE66EE66A29D829
:10015000E552E5520C0EE66EE66A23D8E552E5520A
:10016000010EE66EE66A1DD8E552E552060EE66E11
:10017000E66A17D8E552E5521200D9CFE6FFE1CF83
:10018000D9FFFD0EDB50836E8280828482940A0E3A
:10019000E66EE66A1AD8E552E552E552E7CFD9FF96
:1001A0001200D9CFE6FFE1CFD9FFFD0EDB50836E01
:1001B0008290828482940A0EE66EE66A06D8E55240
:1001C000E552E552E7CFD9FF1200D9CFE6FFE1CFE4
:1001D000D9FF040EE126DE6ADD6ADECF00F0DDCF56
:1001E00001F0FD0EDBCF02F0FE0EDBCF03F002507C
:1001F000005C035001581AE2020EDB6A030EDB6A50
:10020000020EDBCF00F0030EDBCF01F0870E005CA7
:10021000000E015806E2020EDB2A030E01E3DB2A80
:10022000EFD7DF2A010E01E3DB2AD7D7F56E040EE4
:10023000E15C02E2E16AE552E16EF550E552E7CF9A
:04024000D9FF1200D0
:0C0244002A0EF66E000EF76E000EF86E2B
:1002500000010900F550856F0900F550866F03E134
:10026000856701D03DD00900F550806F0900F55039
:10027000816F0900F550826F09000900F550E96EA1
:100280000900F550EA6E090009000900F550836F76
:100290000900F550846F09000900F6CF87F0F7CF09
:1002A00088F0F8CF89F080C0F6FF81C0F7FF82C0E8
:1002B000F8FF0001835302E1845307E00900F55081
:1002C000EE6E8307F8E28407F9D787C0F6FF88C08F
:1002D000F7FF89C0F8FF00018507000E865BBFD7D6
:0202E00012000A
:0E02E20015EE00F025EE00F0F86A059C22EC07
:0A02F00001F016EC00F0FDD712003B
:00000001FF
