:020000040000FA
:060000004CEF01F01200BC
:02002A000000D4
:04002C00D9CFE6FF43
:10003000E1CFD9FF160EE1263F0EF36E020EF3CF8D
:10004000DBFF060EF36E030EF3CFDBFF5B0EF36EEA
:10005000040EF3CFDBFF4F0EF36E050EF3CFDBFF85
:10006000660EF36E060EF3CFDBFF6D0EF36E070E1A
:10007000F3CFDBFF7D0EF36E080EF3CFDBFF070E31
:10008000F36E090EF3CFDBFF7F0EF36E0A0EF3CF94
:10009000DBFF6F0EF36E0B0EF3CFDBFF3F0EF36E45
:1000A0000C0EF3CFDBFF060EF36E0D0EF3CFDBFF6E
:1000B0005B0EF36E0E0EF3CFDBFF4F0EF36E0F0EE3
:1000C000F3CFDBFF660EF36E100EF3CFDBFF6D0E8A
:1000D000F36E110EF3CFDBFF7D0EF36E120EF3CF36
:1000E000DBFF070EF36E130EF3CFDBFF7F0EF36E15
:1000F000140EF3CFDBFF6F0EF36E150EF3CFDBFFA5
:10010000936A956ADF6ADF5009082DE3D9500C0F16
:10011000006EDACF01F0DF500F010024E96E000E0F
:100120000120EA6EEF50816E010EDB6ADB50090898
:1001300018E3D950020F006EDACF01F0010EDB5048
:100140000F010024E96E000E0120EA6EEF50836E6D
:10015000640EE66EE66A14D8E552E552010EDB2A1B
:10016000E5D7DF2AD0D7CED7F56E160EE15C02E2D6
:10017000E16AE552E16EF550E552E7CFD9FF120092
:10018000D9CFE6FFE1CFD9FF040EE126DE6ADD6AB2
:10019000DECF00F0DDCF01F0FD0EDBCF02F0FE0E72
:1001A000DBCF03F00050025C015003581AE3020E4B
:1001B000DB6A030EDB6AD950020FE96EDACFEAFF81
:1001C000A50ED880EE54000EED5406E3020EDB2A95
:1001D000030E01E3DB2AEFD7DF2A010E01E3DB2A5E
:1001E000D7D7F56E040EE15C02E2E16AE552E16EFA
:0A01F000F550E552E7CFD9FF1200E9
:0601FA002A0EF66E000E55
:10020000F76E000EF86E00010900F550856F0900C9
:10021000F550866F03E1856701D03DD00900F550A8
:10022000806F0900F550816F0900F550826F090059
:100230000900F550E96E0900F550EA6E0900090061
:100240000900F550836F0900F550846F090009001B
:10025000F6CF87F0F7CF88F0F8CF89F080C0F6FFAF
:1002600081C0F7FF82C0F8FF0001835302E184538D
:1002700007E00900F550EE6E8307F8E28407F9D72E
:1002800087C0F6FF88C0F7FF89C0F8FF0001850727
:08029000000E865BBFD71200CF
:0802980015EE00F025EE00F068
:1002A000F86A059CFDEC00F016EC00F0FDD712009A
:020000040030CA
:010003000EEE
:00000001FF
