:020000040000FA
:060000008EEF00F012007B
:02002A000000D4
:04002C002A0EF66E34
:10003000000EF76E000EF86E00010900F550856F96
:100040000900F550866F03E1856701D03DD00900B6
:10005000F550806F0900F550816F0900F550826FEF
:1000600009000900F550E96E0900F550EA6E090033
:1000700009000900F550836F0900F550846F0900ED
:100080000900F6CF87F0F7CF88F0F8CF89F080C06D
:10009000F6FF81C0F7FF82C0F8FF0001835302E141
:1000A000845307E00900F550EE6E8307F8E28407F9
:1000B000F9D787C0F6FF88C0F7FF89C0F8FF0001B5
:0A00C0008507000E865BBFD7120013
:0600CA00200EAC6E0F0ECB
:1000D000AF6EAC8AAB8E4A0EE66E13D8E552410E77
:1000E000E66E0FD8E552490EE66E0BD8E5524E0E7D
:1000F000E66E07D8E5522F0EE66E03D8E552EBD731
:100100001200D9CFE6FFE1CFD9FF9EA8FED7FE0EA1
:0C011000DB50AD6EE552E7CFD9FF1200C6
:04011C0015EE00F0EC
:1001200025EE00F0F86A019C16EC00F065EC00F09A
:04013000FDD71200E5
:00000001FF
