:020000040000FA
:06000000B5EF00F0120054
:02002A000000D4
:04002C00956A550E6E
:10003000836EFA0EE66EE66A0CD8E552E552AA0E19
:10004000836EFA0EE66EE66A04D8E552E552EFD703
:100050001200D9CFE6FFE1CFD9FF040EE126DE6A18
:10006000DD6ADECF00F0DDCF01F0FD0EDBCF02F068
:10007000FE0EDBCF03F00050025C015003581AE380
:10008000020EDB6A030EDB6AD950020FE96EDACF8B
:10009000EAFFA50ED880EE54000EED5406E3020EE2
:1000A000DB2A030E01E3DB2AEFD7DF2A010E01E38F
:1000B000DB2AD7D7F56E040EE15C02E2E16AE55275
:0C00C000E16EF550E552E7CFD9FF1200C9
:0400CC002A0EF66E94
:1000D000000EF76E000EF86E00010900F550856FF6
:1000E0000900F550866F03E1856701D03DD0090016
:1000F000F550806F0900F550816F0900F550826F4F
:1001000009000900F550E96E0900F550EA6E090092
:1001100009000900F550836F0900F550846F09004C
:100120000900F6CF87F0F7CF88F0F8CF89F080C0CC
:10013000F6FF81C0F7FF82C0F8FF0001835302E1A0
:10014000845307E00900F550EE6E8307F8E2840758
:10015000F9D787C0F6FF88C0F7FF89C0F8FF000114
:0A0160008507000E865BBFD7120072
:06016A0015EE00F025EE89
:1001700000F0F86A059C66EC00F016EC00F0FDD784
:0201800012006B
:00000001FF
